{
  "_format": "hh-sol-artifact-1",
  "contractName": "MemedBattle",
  "sourceName": "contracts/MemedBattle.sol",
  "abi": [
    {
      "inputs": [
        {
          "internalType": "address payable",
          "name": "_factory",
          "type": "address"
        }
      ],
      "stateMutability": "nonpayable",
      "type": "constructor"
    },
    {
      "inputs": [
        {
          "internalType": "address",
          "name": "owner",
          "type": "address"
        }
      ],
      "name": "OwnableInvalidOwner",
      "type": "error"
    },
    {
      "inputs": [
        {
          "internalType": "address",
          "name": "account",
          "type": "address"
        }
      ],
      "name": "OwnableUnauthorizedAccount",
      "type": "error"
    },
    {
      "anonymous": false,
      "inputs": [
        {
          "indexed": true,
          "internalType": "uint256",
          "name": "battleId",
          "type": "uint256"
        },
        {
          "indexed": true,
          "internalType": "address",
          "name": "token1",
          "type": "address"
        },
        {
          "indexed": true,
          "internalType": "address",
          "name": "token2",
          "type": "address"
        },
        {
          "indexed": false,
          "internalType": "uint256",
          "name": "startTime",
          "type": "uint256"
        },
        {
          "indexed": false,
          "internalType": "uint256",
          "name": "endTime",
          "type": "uint256"
        }
      ],
      "name": "BattleCreated",
      "type": "event"
    },
    {
      "anonymous": false,
      "inputs": [
        {
          "indexed": true,
          "internalType": "uint256",
          "name": "battleId",
          "type": "uint256"
        },
        {
          "indexed": true,
          "internalType": "address",
          "name": "winner",
          "type": "address"
        },
        {
          "indexed": false,
          "internalType": "uint256",
          "name": "token1FinalVotes",
          "type": "uint256"
        },
        {
          "indexed": false,
          "internalType": "uint256",
          "name": "token2FinalVotes",
          "type": "uint256"
        }
      ],
      "name": "BattleSettled",
      "type": "event"
    },
    {
      "anonymous": false,
      "inputs": [
        {
          "indexed": true,
          "internalType": "address",
          "name": "token",
          "type": "address"
        },
        {
          "indexed": false,
          "internalType": "uint256",
          "name": "timestamp",
          "type": "uint256"
        }
      ],
      "name": "NewKingCrowned",
      "type": "event"
    },
    {
      "anonymous": false,
      "inputs": [
        {
          "indexed": true,
          "internalType": "address",
          "name": "previousOwner",
          "type": "address"
        },
        {
          "indexed": true,
          "internalType": "address",
          "name": "newOwner",
          "type": "address"
        }
      ],
      "name": "OwnershipTransferred",
      "type": "event"
    },
    {
      "anonymous": false,
      "inputs": [
        {
          "indexed": true,
          "internalType": "uint256",
          "name": "battleId",
          "type": "uint256"
        },
        {
          "indexed": true,
          "internalType": "address",
          "name": "voter",
          "type": "address"
        },
        {
          "indexed": true,
          "internalType": "address",
          "name": "votedFor",
          "type": "address"
        },
        {
          "indexed": false,
          "internalType": "uint256",
          "name": "votingPower",
          "type": "uint256"
        }
      ],
      "name": "VoteCast",
      "type": "event"
    },
    {
      "inputs": [],
      "name": "BATTLE_DURATION",
      "outputs": [
        {
          "internalType": "uint256",
          "name": "",
          "type": "uint256"
        }
      ],
      "stateMutability": "view",
      "type": "function"
    },
    {
      "inputs": [],
      "name": "CREATION_FEE",
      "outputs": [
        {
          "internalType": "uint256",
          "name": "",
          "type": "uint256"
        }
      ],
      "stateMutability": "view",
      "type": "function"
    },
    {
      "inputs": [],
      "name": "MIN_TOKENS_TO_CREATE",
      "outputs": [
        {
          "internalType": "uint256",
          "name": "",
          "type": "uint256"
        }
      ],
      "stateMutability": "view",
      "type": "function"
    },
    {
      "inputs": [],
      "name": "battleCount",
      "outputs": [
        {
          "internalType": "uint256",
          "name": "",
          "type": "uint256"
        }
      ],
      "stateMutability": "view",
      "type": "function"
    },
    {
      "inputs": [
        {
          "internalType": "uint256",
          "name": "",
          "type": "uint256"
        }
      ],
      "name": "battles",
      "outputs": [
        {
          "internalType": "address",
          "name": "token1",
          "type": "address"
        },
        {
          "internalType": "address",
          "name": "token2",
          "type": "address"
        },
        {
          "internalType": "uint256",
          "name": "token1Votes",
          "type": "uint256"
        },
        {
          "internalType": "uint256",
          "name": "token2Votes",
          "type": "uint256"
        },
        {
          "internalType": "uint256",
          "name": "startTime",
          "type": "uint256"
        },
        {
          "internalType": "uint256",
          "name": "endTime",
          "type": "uint256"
        },
        {
          "internalType": "bool",
          "name": "settled",
          "type": "bool"
        },
        {
          "internalType": "address",
          "name": "winner",
          "type": "address"
        }
      ],
      "stateMutability": "view",
      "type": "function"
    },
    {
      "inputs": [
        {
          "internalType": "address",
          "name": "_voter",
          "type": "address"
        },
        {
          "internalType": "address",
          "name": "_token1",
          "type": "address"
        },
        {
          "internalType": "address",
          "name": "_token2",
          "type": "address"
        }
      ],
      "name": "calculateVotingPower",
      "outputs": [
        {
          "internalType": "uint256",
          "name": "",
          "type": "uint256"
        }
      ],
      "stateMutability": "view",
      "type": "function"
    },
    {
      "inputs": [
        {
          "internalType": "address",
          "name": "_token1",
          "type": "address"
        },
        {
          "internalType": "address",
          "name": "_token2",
          "type": "address"
        }
      ],
      "name": "createBattle",
      "outputs": [],
      "stateMutability": "payable",
      "type": "function"
    },
    {
      "inputs": [],
      "name": "currentKing",
      "outputs": [
        {
          "internalType": "address",
          "name": "",
          "type": "address"
        }
      ],
      "stateMutability": "view",
      "type": "function"
    },
    {
      "inputs": [],
      "name": "factory",
      "outputs": [
        {
          "internalType": "contract Factory",
          "name": "",
          "type": "address"
        }
      ],
      "stateMutability": "view",
      "type": "function"
    },
    {
      "inputs": [],
      "name": "feesBalance",
      "outputs": [
        {
          "internalType": "uint256",
          "name": "",
          "type": "uint256"
        }
      ],
      "stateMutability": "view",
      "type": "function"
    },
    {
      "inputs": [
        {
          "internalType": "bool",
          "name": "activeOnly",
          "type": "bool"
        }
      ],
      "name": "getBattles",
      "outputs": [
        {
          "internalType": "uint256[]",
          "name": "battleIds",
          "type": "uint256[]"
        },
        {
          "internalType": "address[]",
          "name": "token1Addresses",
          "type": "address[]"
        },
        {
          "internalType": "address[]",
          "name": "token2Addresses",
          "type": "address[]"
        },
        {
          "internalType": "uint256[]",
          "name": "token1Votes",
          "type": "uint256[]"
        },
        {
          "internalType": "uint256[]",
          "name": "token2Votes",
          "type": "uint256[]"
        },
        {
          "internalType": "uint256[]",
          "name": "startTimes",
          "type": "uint256[]"
        },
        {
          "internalType": "uint256[]",
          "name": "endTimes",
          "type": "uint256[]"
        },
        {
          "internalType": "bool[]",
          "name": "settled",
          "type": "bool[]"
        },
        {
          "internalType": "address[]",
          "name": "winners",
          "type": "address[]"
        }
      ],
      "stateMutability": "view",
      "type": "function"
    },
    {
      "inputs": [
        {
          "internalType": "uint256",
          "name": "limit",
          "type": "uint256"
        }
      ],
      "name": "getLeaderboard",
      "outputs": [
        {
          "internalType": "address[]",
          "name": "tokens",
          "type": "address[]"
        },
        {
          "internalType": "uint256[]",
          "name": "wins",
          "type": "uint256[]"
        },
        {
          "internalType": "uint256[]",
          "name": "totalBattles",
          "type": "uint256[]"
        },
        {
          "internalType": "uint256[]",
          "name": "totalVotes",
          "type": "uint256[]"
        }
      ],
      "stateMutability": "view",
      "type": "function"
    },
    {
      "inputs": [
        {
          "internalType": "address",
          "name": "token",
          "type": "address"
        }
      ],
      "name": "getTokenBasicStats",
      "outputs": [
        {
          "internalType": "uint256",
          "name": "totalBattles",
          "type": "uint256"
        },
        {
          "internalType": "uint256",
          "name": "totalWins",
          "type": "uint256"
        },
        {
          "internalType": "uint256",
          "name": "totalLosses",
          "type": "uint256"
        },
        {
          "internalType": "uint256",
          "name": "totalVotes",
          "type": "uint256"
        },
        {
          "internalType": "bool",
          "name": "isCurrentKing",
          "type": "bool"
        },
        {
          "internalType": "uint256",
          "name": "kingTime",
          "type": "uint256"
        }
      ],
      "stateMutability": "view",
      "type": "function"
    },
    {
      "inputs": [
        {
          "internalType": "address",
          "name": "token",
          "type": "address"
        }
      ],
      "name": "getTokenMonthlyStats",
      "outputs": [
        {
          "internalType": "uint256[]",
          "name": "monthlyBattles",
          "type": "uint256[]"
        },
        {
          "internalType": "uint256[]",
          "name": "monthlyWins",
          "type": "uint256[]"
        }
      ],
      "stateMutability": "view",
      "type": "function"
    },
    {
      "inputs": [
        {
          "internalType": "uint256",
          "name": "",
          "type": "uint256"
        },
        {
          "internalType": "address",
          "name": "",
          "type": "address"
        }
      ],
      "name": "hasVoted",
      "outputs": [
        {
          "internalType": "bool",
          "name": "",
          "type": "bool"
        }
      ],
      "stateMutability": "view",
      "type": "function"
    },
    {
      "inputs": [
        {
          "internalType": "bytes32",
          "name": "",
          "type": "bytes32"
        }
      ],
      "name": "lastBattleTimestamp",
      "outputs": [
        {
          "internalType": "uint256",
          "name": "",
          "type": "uint256"
        }
      ],
      "stateMutability": "view",
      "type": "function"
    },
    {
      "inputs": [
        {
          "internalType": "address",
          "name": "",
          "type": "address"
        },
        {
          "internalType": "uint256",
          "name": "",
          "type": "uint256"
        }
      ],
      "name": "monthlyBattleCount",
      "outputs": [
        {
          "internalType": "uint256",
          "name": "",
          "type": "uint256"
        }
      ],
      "stateMutability": "view",
      "type": "function"
    },
    {
      "inputs": [
        {
          "internalType": "address",
          "name": "",
          "type": "address"
        },
        {
          "internalType": "uint256",
          "name": "",
          "type": "uint256"
        }
      ],
      "name": "monthlyWinCount",
      "outputs": [
        {
          "internalType": "uint256",
          "name": "",
          "type": "uint256"
        }
      ],
      "stateMutability": "view",
      "type": "function"
    },
    {
      "inputs": [],
      "name": "owner",
      "outputs": [
        {
          "internalType": "address",
          "name": "",
          "type": "address"
        }
      ],
      "stateMutability": "view",
      "type": "function"
    },
    {
      "inputs": [],
      "name": "renounceOwnership",
      "outputs": [],
      "stateMutability": "nonpayable",
      "type": "function"
    },
    {
      "inputs": [
        {
          "internalType": "uint256",
          "name": "_battleId",
          "type": "uint256"
        }
      ],
      "name": "settleBattle",
      "outputs": [],
      "stateMutability": "nonpayable",
      "type": "function"
    },
    {
      "inputs": [
        {
          "internalType": "address",
          "name": "",
          "type": "address"
        }
      ],
      "name": "tokenScores",
      "outputs": [
        {
          "internalType": "uint256",
          "name": "wins",
          "type": "uint256"
        },
        {
          "internalType": "uint256",
          "name": "totalBattles",
          "type": "uint256"
        },
        {
          "internalType": "uint256",
          "name": "totalVotes",
          "type": "uint256"
        }
      ],
      "stateMutability": "view",
      "type": "function"
    },
    {
      "inputs": [
        {
          "internalType": "address",
          "name": "",
          "type": "address"
        }
      ],
      "name": "tokenStats",
      "outputs": [
        {
          "internalType": "uint256",
          "name": "totalBattlesInitiated",
          "type": "uint256"
        },
        {
          "internalType": "uint256",
          "name": "totalBattlesParticipated",
          "type": "uint256"
        },
        {
          "internalType": "uint256",
          "name": "totalWins",
          "type": "uint256"
        },
        {
          "internalType": "uint256",
          "name": "totalLosses",
          "type": "uint256"
        },
        {
          "internalType": "uint256",
          "name": "totalVotes",
          "type": "uint256"
        },
        {
          "internalType": "uint256",
          "name": "lastBattleTime",
          "type": "uint256"
        },
        {
          "internalType": "uint256",
          "name": "lastWinTime",
          "type": "uint256"
        },
        {
          "internalType": "bool",
          "name": "isKing",
          "type": "bool"
        },
        {
          "internalType": "uint256",
          "name": "kingCrownedTime",
          "type": "uint256"
        }
      ],
      "stateMutability": "view",
      "type": "function"
    },
    {
      "inputs": [
        {
          "internalType": "address",
          "name": "newOwner",
          "type": "address"
        }
      ],
      "name": "transferOwnership",
      "outputs": [],
      "stateMutability": "nonpayable",
      "type": "function"
    },
    {
      "inputs": [
        {
          "internalType": "uint256",
          "name": "",
          "type": "uint256"
        },
        {
          "internalType": "address",
          "name": "",
          "type": "address"
        }
      ],
      "name": "userVotingPower",
      "outputs": [
        {
          "internalType": "uint256",
          "name": "",
          "type": "uint256"
        }
      ],
      "stateMutability": "view",
      "type": "function"
    },
    {
      "inputs": [
        {
          "internalType": "uint256",
          "name": "_battleId",
          "type": "uint256"
        },
        {
          "internalType": "address",
          "name": "_votingFor",
          "type": "address"
        }
      ],
      "name": "vote",
      "outputs": [],
      "stateMutability": "nonpayable",
      "type": "function"
    },
    {
      "inputs": [],
      "name": "withdrawFees",
      "outputs": [],
      "stateMutability": "nonpayable",
      "type": "function"
    }
  ],
  "bytecode": "0x608060405234801561001057600080fd5b50604051614e8e380380614e8e83398181016040528101906100329190610223565b33600073ffffffffffffffffffffffffffffffffffffffff168173ffffffffffffffffffffffffffffffffffffffff16036100a55760006040517f1e4fbdf700000000000000000000000000000000000000000000000000000000815260040161009c9190610271565b60405180910390fd5b6100b4816100fc60201b60201c565b5080600160006101000a81548173ffffffffffffffffffffffffffffffffffffffff021916908373ffffffffffffffffffffffffffffffffffffffff1602179055505061028c565b60008060009054906101000a900473ffffffffffffffffffffffffffffffffffffffff169050816000806101000a81548173ffffffffffffffffffffffffffffffffffffffff021916908373ffffffffffffffffffffffffffffffffffffffff1602179055508173ffffffffffffffffffffffffffffffffffffffff168173ffffffffffffffffffffffffffffffffffffffff167f8be0079c531659141344cd1fd0a4f28419497f9722a3daafe3b4186f6b6457e060405160405180910390a35050565b600080fd5b600073ffffffffffffffffffffffffffffffffffffffff82169050919050565b60006101f0826101c5565b9050919050565b610200816101e5565b811461020b57600080fd5b50565b60008151905061021d816101f7565b92915050565b600060208284031215610239576102386101c0565b5b60006102478482850161020e565b91505092915050565b600061025b826101c5565b9050919050565b61026b81610250565b82525050565b60006020820190506102866000830184610262565b92915050565b614bf38061029b6000396000f3fe60806040526004361061019c5760003560e01c80637518c965116100ec578063c45a01551161008a578063e41385a311610064578063e41385a314610623578063ece8052814610660578063f2fde38b146106a5578063f5b45714146106ce5761019c565b8063c45a01551461058e578063e00b6363146105b9578063e0690d99146105e45761019c565b8063af1f64c2116100c6578063af1f64c2146104b9578063b236eb8d146104f6578063b34e753914610521578063bd54b9701461054c5761019c565b80637518c965146104235780638da5cb5b1461044e578063a34b46fe146104795761019c565b8063438596321161015957806349a2104d1161013357806349a2104d1461036057806350cbba7f1461038b578063606d2e96146103c8578063715018a61461040c5761019c565b806343859632146102e3578063476343ee1461032057806348eaa2f0146103375761019c565b806302d947ef146101a15780630625ef58146101ca5780632a4f94e81461020757806332670c441461024c57806338c7e278146102895780633d0ebf48146102c7575b600080fd5b3480156101ad57600080fd5b506101c860048036038101906101c39190613655565b6106f9565b005b3480156101d657600080fd5b506101f160048036038101906101ec9190613695565b610bd7565b6040516101fe91906136e4565b60405180910390f35b34801561021357600080fd5b5061022e60048036038101906102299190613737565b610bfc565b6040516102439998979695949392919061399e565b60405180910390f35b34801561025857600080fd5b50610273600480360381019061026e9190613a6a565b6111df565b60405161028091906136e4565b60405180910390f35b34801561029557600080fd5b506102b060048036038101906102ab9190613abd565b61131b565b6040516102be929190613aea565b60405180910390f35b6102e160048036038101906102dc9190613b21565b6114f2565b005b3480156102ef57600080fd5b5061030a60048036038101906103059190613655565b611ca7565b6040516103179190613b70565b60405180910390f35b34801561032c57600080fd5b50610335611cd6565b005b34801561034357600080fd5b5061035e60048036038101906103599190613b8b565b611d3e565b005b34801561036c57600080fd5b506103756126c5565b60405161038291906136e4565b60405180910390f35b34801561039757600080fd5b506103b260048036038101906103ad9190613bee565b6126cf565b6040516103bf91906136e4565b60405180910390f35b3480156103d457600080fd5b506103ef60048036038101906103ea9190613b8b565b6126e7565b604051610403989796959493929190613c2a565b60405180910390f35b34801561041857600080fd5b5061042161279c565b005b34801561042f57600080fd5b506104386127b0565b60405161044591906136e4565b60405180910390f35b34801561045a57600080fd5b506104636127b6565b6040516104709190613ca8565b60405180910390f35b34801561048557600080fd5b506104a0600480360381019061049b9190613b8b565b6127df565b6040516104b09493929190613cc3565b60405180910390f35b3480156104c557600080fd5b506104e060048036038101906104db9190613695565b61304d565b6040516104ed91906136e4565b60405180910390f35b34801561050257600080fd5b5061050b613072565b60405161051891906136e4565b60405180910390f35b34801561052d57600080fd5b50610536613078565b60405161054391906136e4565b60405180910390f35b34801561055857600080fd5b50610573600480360381019061056e9190613abd565b613085565b60405161058596959493929190613d24565b60405180910390f35b34801561059a57600080fd5b506105a3613151565b6040516105b09190613de4565b60405180910390f35b3480156105c557600080fd5b506105ce613177565b6040516105db91906136e4565b60405180910390f35b3480156105f057600080fd5b5061060b60048036038101906106069190613abd565b61317d565b60405161061a93929190613dff565b60405180910390f35b34801561062f57600080fd5b5061064a60048036038101906106459190613655565b6131a7565b60405161065791906136e4565b60405180910390f35b34801561066c57600080fd5b5061068760048036038101906106829190613abd565b6131cc565b60405161069c99989796959493929190613e36565b60405180910390f35b3480156106b157600080fd5b506106cc60048036038101906106c79190613abd565b613227565b005b3480156106da57600080fd5b506106e36132ad565b6040516106f09190613ca8565b60405180910390f35b60006002600084815260200190815260200160002090508060040154421015610757576040517f08c379a000000000000000000000000000000000000000000000000000000000815260040161074e90613f20565b60405180910390fd5b8060050154421061079d576040517f08c379a000000000000000000000000000000000000000000000000000000000815260040161079490613f8c565b60405180910390fd5b6004600084815260200190815260200160002060003373ffffffffffffffffffffffffffffffffffffffff1673ffffffffffffffffffffffffffffffffffffffff16815260200190815260200160002060009054906101000a900460ff161561083b576040517f08c379a000000000000000000000000000000000000000000000000000000000815260040161083290613ff8565b60405180910390fd5b8060000160009054906101000a900473ffffffffffffffffffffffffffffffffffffffff1673ffffffffffffffffffffffffffffffffffffffff168273ffffffffffffffffffffffffffffffffffffffff1614806108e857508060010160009054906101000a900473ffffffffffffffffffffffffffffffffffffffff1673ffffffffffffffffffffffffffffffffffffffff168273ffffffffffffffffffffffffffffffffffffffff16145b610927576040517f08c379a000000000000000000000000000000000000000000000000000000000815260040161091e90614064565b60405180910390fd5b600061097c338360000160009054906101000a900473ffffffffffffffffffffffffffffffffffffffff168460010160009054906101000a900473ffffffffffffffffffffffffffffffffffffffff166111df565b9050600081116109c1576040517f08c379a00000000000000000000000000000000000000000000000000000000081526004016109b8906140d0565b60405180910390fd5b8160000160009054906101000a900473ffffffffffffffffffffffffffffffffffffffff1673ffffffffffffffffffffffffffffffffffffffff168373ffffffffffffffffffffffffffffffffffffffff1603610a385780826002016000828254610a2c919061411f565b92505081905550610a54565b80826003016000828254610a4c919061411f565b925050819055505b80600660008573ffffffffffffffffffffffffffffffffffffffff1673ffffffffffffffffffffffffffffffffffffffff1681526020019081526020016000206004016000828254610aa6919061411f565b9250508190555060016004600086815260200190815260200160002060003373ffffffffffffffffffffffffffffffffffffffff1673ffffffffffffffffffffffffffffffffffffffff16815260200190815260200160002060006101000a81548160ff021916908315150217905550806005600086815260200190815260200160002060003373ffffffffffffffffffffffffffffffffffffffff1673ffffffffffffffffffffffffffffffffffffffff168152602001908152602001600020819055508273ffffffffffffffffffffffffffffffffffffffff163373ffffffffffffffffffffffffffffffffffffffff16857f044652d717a831bada29c3f4822836fca71492a56031a029c131e915bd00ce8e84604051610bc991906136e4565b60405180910390a450505050565b6008602052816000526040600020602052806000526040600020600091509150505481565b60608060608060608060608060606000805b600954811015610c7c5760006002600083815260200190815260200160002090508c1580610c5a57508060060160009054906101000a900460ff16158015610c595750806005015442105b5b15610c6e578280610c6a90614153565b9350505b508080600101915050610c0e565b508067ffffffffffffffff811115610c9757610c9661419b565b5b604051908082528060200260200182016040528015610cc55781602001602082028036833780820191505090505b5099508067ffffffffffffffff811115610ce257610ce161419b565b5b604051908082528060200260200182016040528015610d105781602001602082028036833780820191505090505b5098508067ffffffffffffffff811115610d2d57610d2c61419b565b5b604051908082528060200260200182016040528015610d5b5781602001602082028036833780820191505090505b5097508067ffffffffffffffff811115610d7857610d7761419b565b5b604051908082528060200260200182016040528015610da65781602001602082028036833780820191505090505b5096508067ffffffffffffffff811115610dc357610dc261419b565b5b604051908082528060200260200182016040528015610df15781602001602082028036833780820191505090505b5095508067ffffffffffffffff811115610e0e57610e0d61419b565b5b604051908082528060200260200182016040528015610e3c5781602001602082028036833780820191505090505b5094508067ffffffffffffffff811115610e5957610e5861419b565b5b604051908082528060200260200182016040528015610e875781602001602082028036833780820191505090505b5093508067ffffffffffffffff811115610ea457610ea361419b565b5b604051908082528060200260200182016040528015610ed25781602001602082028036833780820191505090505b5092508067ffffffffffffffff811115610eef57610eee61419b565b5b604051908082528060200260200182016040528015610f1d5781602001602082028036833780820191505090505b5091506000805b6009548110156111cf5760006002600083815260200190815260200160002090508d1580610f7057508060060160009054906101000a900460ff16158015610f6f5750806005015442105b5b156111c157818d8481518110610f8957610f886141ca565b5b6020026020010181815250508060000160009054906101000a900473ffffffffffffffffffffffffffffffffffffffff168c8481518110610fcd57610fcc6141ca565b5b602002602001019073ffffffffffffffffffffffffffffffffffffffff16908173ffffffffffffffffffffffffffffffffffffffff16815250508060010160009054906101000a900473ffffffffffffffffffffffffffffffffffffffff168b848151811061103f5761103e6141ca565b5b602002602001019073ffffffffffffffffffffffffffffffffffffffff16908173ffffffffffffffffffffffffffffffffffffffff168152505080600201548a8481518110611091576110906141ca565b5b60200260200101818152505080600301548984815181106110b5576110b46141ca565b5b60200260200101818152505080600401548884815181106110d9576110d86141ca565b5b60200260200101818152505080600501548784815181106110fd576110fc6141ca565b5b6020026020010181815250508060060160009054906101000a900460ff1686848151811061112e5761112d6141ca565b5b6020026020010190151590811515815250508060060160019054906101000a900473ffffffffffffffffffffffffffffffffffffffff16858481518110611178576111776141ca565b5b602002602001019073ffffffffffffffffffffffffffffffffffffffff16908173ffffffffffffffffffffffffffffffffffffffff168152505082806111bd90614153565b9350505b508080600101915050610f24565b5050509193959799909294969850565b600080839050600083905060008273ffffffffffffffffffffffffffffffffffffffff166370a08231886040518263ffffffff1660e01b81526004016112259190613ca8565b602060405180830381865afa158015611242573d6000803e3d6000fd5b505050506040513d601f19601f82011682018060405250810190611266919061420e565b905060008273ffffffffffffffffffffffffffffffffffffffff166370a08231896040518263ffffffff1660e01b81526004016112a39190613ca8565b602060405180830381865afa1580156112c0573d6000803e3d6000fd5b505050506040513d601f19601f820116820180604052508101906112e4919061420e565b905060006112f1836132d3565b905060006112fe836132d3565b9050808261130c919061411f565b96505050505050509392505050565b606080600667ffffffffffffffff8111156113395761133861419b565b5b6040519080825280602002602001820160405280156113675781602001602082028036833780820191505090505b509150600667ffffffffffffffff8111156113855761138461419b565b5b6040519080825280602002602001820160405280156113b35781602001602082028036833780820191505090505b5090506000600662278d00426113c9919061426a565b6113d3919061429b565b905060005b60068110156114eb576000600682846113f1919061411f565b6113fb919061429b565b9050600760008773ffffffffffffffffffffffffffffffffffffffff1673ffffffffffffffffffffffffffffffffffffffff168152602001908152602001600020600082815260200190815260200160002054858381518110611461576114606141ca565b5b602002602001018181525050600860008773ffffffffffffffffffffffffffffffffffffffff1673ffffffffffffffffffffffffffffffffffffffff1681526020019081526020016000206000828152602001908152602001600020548483815181106114d1576114d06141ca565b5b6020026020010181815250505080806001019150506113d8565b5050915091565b65b5e620f4800034101561153b576040517f08c379a000000000000000000000000000000000000000000000000000000000815260040161153290614318565b60405180910390fd5b8073ffffffffffffffffffffffffffffffffffffffff168273ffffffffffffffffffffffffffffffffffffffff16036115a9576040517f08c379a00000000000000000000000000000000000000000000000000000000081526004016115a090614384565b60405180910390fd5b60008173ffffffffffffffffffffffffffffffffffffffff168373ffffffffffffffffffffffffffffffffffffffff16106115e457816115e6565b825b8273ffffffffffffffffffffffffffffffffffffffff168473ffffffffffffffffffffffffffffffffffffffff161061161f5783611621565b825b6040516020016116329291906143ec565b6040516020818303038152906040528051906020012090506000600c600083815260200190815260200160002054148061168c5750610258600c600083815260200190815260200160002054611688919061411f565b4210155b6116cb576040517f08c379a00000000000000000000000000000000000000000000000000000000081526004016116c290614464565b60405180910390fd5b6000600160009054906101000a900473ffffffffffffffffffffffffffffffffffffffff1673ffffffffffffffffffffffffffffffffffffffff166327e45c2c856040518263ffffffff1660e01b81526004016117289190613ca8565b600060405180830381865afa158015611745573d6000803e3d6000fd5b505050506040513d6000823e3d601f19601f8201168201806040525081019061176e91906145f0565b5050955050505050506000600160009054906101000a900473ffffffffffffffffffffffffffffffffffffffff1673ffffffffffffffffffffffffffffffffffffffff166327e45c2c856040518263ffffffff1660e01b81526004016117d49190613ca8565b600060405180830381865afa1580156117f1573d6000803e3d6000fd5b505050506040513d6000823e3d601f19601f8201168201806040525081019061181a91906145f0565b50509550505050505060028081111561183657611835614716565b5b82600281111561184957611848614716565b5b148015611879575060028081111561186457611863614716565b5b81600281111561187757611876614716565b5b145b6118b8576040517f08c379a00000000000000000000000000000000000000000000000000000000081526004016118af90614791565b60405180910390fd5b60008590506000859050683635c9adc5dea000008273ffffffffffffffffffffffffffffffffffffffff166318160ddd6040518163ffffffff1660e01b8152600401602060405180830381865afa158015611917573d6000803e3d6000fd5b505050506040513d601f19601f8201168201806040525081019061193b919061420e565b101580156119c05750683635c9adc5dea000008173ffffffffffffffffffffffffffffffffffffffff166318160ddd6040518163ffffffff1660e01b8152600401602060405180830381865afa158015611999573d6000803e3d6000fd5b505050506040513d601f19601f820116820180604052508101906119bd919061420e565b10155b6119ff576040517f08c379a00000000000000000000000000000000000000000000000000000000081526004016119f6906147fd565b60405180910390fd5b600060096000815480929190611a1490614153565b9190505590506000429050600061025882611a2f919061411f565b90506040518061010001604052808b73ffffffffffffffffffffffffffffffffffffffff1681526020018a73ffffffffffffffffffffffffffffffffffffffff1681526020016000815260200160008152602001838152602001828152602001600015158152602001600073ffffffffffffffffffffffffffffffffffffffff168152506002600085815260200190815260200160002060008201518160000160006101000a81548173ffffffffffffffffffffffffffffffffffffffff021916908373ffffffffffffffffffffffffffffffffffffffff16021790555060208201518160010160006101000a81548173ffffffffffffffffffffffffffffffffffffffff021916908373ffffffffffffffffffffffffffffffffffffffff16021790555060408201518160020155606082015181600301556080820151816004015560a0820151816005015560c08201518160060160006101000a81548160ff02191690831515021790555060e08201518160060160016101000a81548173ffffffffffffffffffffffffffffffffffffffff021916908373ffffffffffffffffffffffffffffffffffffffff160217905550905050611bf18a6001613348565b611bfc896000613348565b65b5e620f48000600a6000828254611c14919061411f565b9250508190555042600c60008a8152602001908152602001600020819055508873ffffffffffffffffffffffffffffffffffffffff168a73ffffffffffffffffffffffffffffffffffffffff16847f054dfa40cda6e656e0543ff5ec8422055d03392e6f368d4243843ca5a233240c8585604051611c9392919061481d565b60405180910390a450505050505050505050565b60046020528160005260406000206020528060005260406000206000915091509054906101000a900460ff1681565b611cde61345a565b6000600a5490506000600a81905550611cf56127b6565b73ffffffffffffffffffffffffffffffffffffffff166108fc829081150290604051600060405180830381858888f19350505050158015611d3a573d6000803e3d6000fd5b5050565b60006002600083815260200190815260200160002090508060050154421015611d9c576040517f08c379a0000000000000000000000000000000000000000000000000000000008152600401611d9390614892565b60405180910390fd5b8060060160009054906101000a900460ff1615611dee576040517f08c379a0000000000000000000000000000000000000000000000000000000008152600401611de5906148fe565b60405180910390fd5b6000816003015482600201541115611ea8578160000160009054906101000a900473ffffffffffffffffffffffffffffffffffffffff169050600660008360010160009054906101000a900473ffffffffffffffffffffffffffffffffffffffff1673ffffffffffffffffffffffffffffffffffffffff1673ffffffffffffffffffffffffffffffffffffffff1681526020019081526020016000206003016000815480929190611e9e90614153565b9190505550612115565b816002015482600301541115611f60578160010160009054906101000a900473ffffffffffffffffffffffffffffffffffffffff169050600660008360000160009054906101000a900473ffffffffffffffffffffffffffffffffffffffff1673ffffffffffffffffffffffffffffffffffffffff1673ffffffffffffffffffffffffffffffffffffffff1681526020019081526020016000206003016000815480929190611f5690614153565b9190505550612114565b6000826002015414611fd5576000600242611f7b919061429b565b14611faa578160010160009054906101000a900473ffffffffffffffffffffffffffffffffffffffff16611fd0565b8160000160009054906101000a900473ffffffffffffffffffffffffffffffffffffffff165b611fd8565b60005b9050600073ffffffffffffffffffffffffffffffffffffffff168173ffffffffffffffffffffffffffffffffffffffff16146121135760008260000160009054906101000a900473ffffffffffffffffffffffffffffffffffffffff1673ffffffffffffffffffffffffffffffffffffffff168273ffffffffffffffffffffffffffffffffffffffff1614612091578260000160009054906101000a900473ffffffffffffffffffffffffffffffffffffffff166120b7565b8260010160009054906101000a900473ffffffffffffffffffffffffffffffffffffffff165b9050600660008273ffffffffffffffffffffffffffffffffffffffff1673ffffffffffffffffffffffffffffffffffffffff168152602001908152602001600020600301600081548092919061210c90614153565b9190505550505b5b5b808260060160016101000a81548173ffffffffffffffffffffffffffffffffffffffff021916908373ffffffffffffffffffffffffffffffffffffffff16021790555060018260060160006101000a81548160ff021916908315150217905550600360008360000160009054906101000a900473ffffffffffffffffffffffffffffffffffffffff1673ffffffffffffffffffffffffffffffffffffffff1673ffffffffffffffffffffffffffffffffffffffff16815260200190815260200160002060010160008154809291906121ec90614153565b9190505550600360008360010160009054906101000a900473ffffffffffffffffffffffffffffffffffffffff1673ffffffffffffffffffffffffffffffffffffffff1673ffffffffffffffffffffffffffffffffffffffff168152602001908152602001600020600101600081548092919061226890614153565b91905055508160020154600360008460000160009054906101000a900473ffffffffffffffffffffffffffffffffffffffff1673ffffffffffffffffffffffffffffffffffffffff1673ffffffffffffffffffffffffffffffffffffffff16815260200190815260200160002060020160008282546122e7919061411f565b925050819055508160030154600360008460010160009054906101000a900473ffffffffffffffffffffffffffffffffffffffff1673ffffffffffffffffffffffffffffffffffffffff1673ffffffffffffffffffffffffffffffffffffffff1681526020019081526020016000206002016000828254612368919061411f565b92505081905550600073ffffffffffffffffffffffffffffffffffffffff168173ffffffffffffffffffffffffffffffffffffffff1614612667576000600660008373ffffffffffffffffffffffffffffffffffffffff1673ffffffffffffffffffffffffffffffffffffffff16815260200190815260200160002090508060020160008154809291906123fb90614153565b9190505550428160060181905550600860008373ffffffffffffffffffffffffffffffffffffffff1673ffffffffffffffffffffffffffffffffffffffff1681526020019081526020016000206000600662278d004261245b919061426a565b612465919061429b565b8152602001908152602001600020600081548092919061248490614153565b9190505550600360008373ffffffffffffffffffffffffffffffffffffffff1673ffffffffffffffffffffffffffffffffffffffff16815260200190815260200160002060000160008154809291906124dc90614153565b91905055506003600860008473ffffffffffffffffffffffffffffffffffffffff1673ffffffffffffffffffffffffffffffffffffffff1681526020019081526020016000206000600662278d0042612535919061426a565b61253f919061429b565b815260200190815260200160002054101580156125aa5750600b60009054906101000a900473ffffffffffffffffffffffffffffffffffffffff1673ffffffffffffffffffffffffffffffffffffffff168273ffffffffffffffffffffffffffffffffffffffff1614155b156126655781600b60006101000a81548173ffffffffffffffffffffffffffffffffffffffff021916908373ffffffffffffffffffffffffffffffffffffffff16021790555060018160070160006101000a81548160ff0219169083151502179055504281600801819055508173ffffffffffffffffffffffffffffffffffffffff167fe63dd356ac0b0d2a59e773dabc5218b8d608c2ae3852343154111379d5975b654260405161265c91906136e4565b60405180910390a25b505b8073ffffffffffffffffffffffffffffffffffffffff16837f840d22332c343b2f800445e34dcc3f88fb7f2ab20eb74f7f46384db26f416ff5846002015485600301546040516126b892919061481d565b60405180910390a3505050565b65b5e620f4800081565b600c6020528060005260406000206000915090505481565b60026020528060005260406000206000915090508060000160009054906101000a900473ffffffffffffffffffffffffffffffffffffffff16908060010160009054906101000a900473ffffffffffffffffffffffffffffffffffffffff16908060020154908060030154908060040154908060050154908060060160009054906101000a900460ff16908060060160019054906101000a900473ffffffffffffffffffffffffffffffffffffffff16905088565b6127a461345a565b6127ae60006134e1565b565b600a5481565b60008060009054906101000a900473ffffffffffffffffffffffffffffffffffffffff16905090565b6060806060806000600160009054906101000a900473ffffffffffffffffffffffffffffffffffffffff1673ffffffffffffffffffffffffffffffffffffffff1663450efe2160006040518263ffffffff1660e01b81526004016128439190613ca8565b600060405180830381865afa158015612860573d6000803e3d6000fd5b505050506040513d6000823e3d601f19601f820116820180604052508101906128899190614b74565b90506000815167ffffffffffffffff8111156128a8576128a761419b565b5b6040519080825280602002602001820160405280156128d65781602001602082028036833780820191505090505b5090506000825167ffffffffffffffff8111156128f6576128f561419b565b5b6040519080825280602002602001820160405280156129245781602001602082028036833780820191505090505b5090506000835167ffffffffffffffff8111156129445761294361419b565b5b6040519080825280602002602001820160405280156129725781602001602082028036833780820191505090505b5090506000845167ffffffffffffffff8111156129925761299161419b565b5b6040519080825280602002602001820160405280156129c05781602001602082028036833780820191505090505b50905060005b8551811015612b275760008682815181106129e4576129e36141ca565b5b60200260200101516000015190506000600360008373ffffffffffffffffffffffffffffffffffffffff1673ffffffffffffffffffffffffffffffffffffffff1681526020019081526020016000206040518060600160405290816000820154815260200160018201548152602001600282015481525050905081878481518110612a7257612a716141ca565b5b602002602001019073ffffffffffffffffffffffffffffffffffffffff16908173ffffffffffffffffffffffffffffffffffffffff16815250508060000151868481518110612ac457612ac36141ca565b5b6020026020010181815250508060200151858481518110612ae857612ae76141ca565b5b6020026020010181815250508060400151848481518110612b0c57612b0b6141ca565b5b602002602001018181525050505080806001019150506129c6565b5060005b8451811015612dcf576000600182612b43919061411f565b90505b8551811015612dc157848281518110612b6257612b616141ca565b5b6020026020010151858281518110612b7d57612b7c6141ca565b5b60200260200101511115612db457858181518110612b9e57612b9d6141ca565b5b6020026020010151868381518110612bb957612bb86141ca565b5b6020026020010151878481518110612bd457612bd36141ca565b5b60200260200101888481518110612bee57612bed6141ca565b5b602002602001018273ffffffffffffffffffffffffffffffffffffffff1673ffffffffffffffffffffffffffffffffffffffff168152508273ffffffffffffffffffffffffffffffffffffffff1673ffffffffffffffffffffffffffffffffffffffff168152505050848181518110612c6a57612c696141ca565b5b6020026020010151858381518110612c8557612c846141ca565b5b6020026020010151868481518110612ca057612c9f6141ca565b5b60200260200101878481518110612cba57612cb96141ca565b5b6020026020010182815250828152505050838181518110612cde57612cdd6141ca565b5b6020026020010151848381518110612cf957612cf86141ca565b5b6020026020010151858481518110612d1457612d136141ca565b5b60200260200101868481518110612d2e57612d2d6141ca565b5b6020026020010182815250828152505050828181518110612d5257612d516141ca565b5b6020026020010151838381518110612d6d57612d6c6141ca565b5b6020026020010151848481518110612d8857612d876141ca565b5b60200260200101858481518110612da257612da16141ca565b5b60200260200101828152508281525050505b8080600101915050612b46565b508080600101915050612b2b565b50600084518b11612de0578a612de3565b84515b90508067ffffffffffffffff811115612dff57612dfe61419b565b5b604051908082528060200260200182016040528015612e2d5781602001602082028036833780820191505090505b5099508067ffffffffffffffff811115612e4a57612e4961419b565b5b604051908082528060200260200182016040528015612e785781602001602082028036833780820191505090505b5098508067ffffffffffffffff811115612e9557612e9461419b565b5b604051908082528060200260200182016040528015612ec35781602001602082028036833780820191505090505b5097508067ffffffffffffffff811115612ee057612edf61419b565b5b604051908082528060200260200182016040528015612f0e5781602001602082028036833780820191505090505b50965060005b8181101561303f57858181518110612f2f57612f2e6141ca565b5b60200260200101518b8281518110612f4a57612f496141ca565b5b602002602001019073ffffffffffffffffffffffffffffffffffffffff16908173ffffffffffffffffffffffffffffffffffffffff1681525050848181518110612f9757612f966141ca565b5b60200260200101518a8281518110612fb257612fb16141ca565b5b602002602001018181525050838181518110612fd157612fd06141ca565b5b6020026020010151898281518110612fec57612feb6141ca565b5b60200260200101818152505082818151811061300b5761300a6141ca565b5b6020026020010151888281518110613026576130256141ca565b5b6020026020010181815250508080600101915050612f14565b505050505050509193509193565b6007602052816000526040600020602052806000526040600020600091509150505481565b61025881565b683635c9adc5dea0000081565b6000806000806000806000600660008973ffffffffffffffffffffffffffffffffffffffff1673ffffffffffffffffffffffffffffffffffffffff168152602001908152602001600020905080600101548160020154826003015483600401548b73ffffffffffffffffffffffffffffffffffffffff16600b60009054906101000a900473ffffffffffffffffffffffffffffffffffffffff1673ffffffffffffffffffffffffffffffffffffffff161485600801549650965096509650965096505091939550919395565b600160009054906101000a900473ffffffffffffffffffffffffffffffffffffffff1681565b60095481565b60036020528060005260406000206000915090508060000154908060010154908060020154905083565b6005602052816000526040600020602052806000526040600020600091509150505481565b60066020528060005260406000206000915090508060000154908060010154908060020154908060030154908060040154908060050154908060060154908060070160009054906101000a900460ff16908060080154905089565b61322f61345a565b600073ffffffffffffffffffffffffffffffffffffffff168173ffffffffffffffffffffffffffffffffffffffff16036132a15760006040517f1e4fbdf70000000000000000000000000000000000000000000000000000000081526004016132989190613ca8565b60405180910390fd5b6132aa816134e1565b50565b600b60009054906101000a900473ffffffffffffffffffffffffffffffffffffffff1681565b60008082036132e55760009050613343565b600060026001846132f6919061411f565b613300919061426a565b905060008390505b8082101561333d578190506002828386613322919061426a565b61332c919061411f565b613336919061426a565b9150613308565b80925050505b919050565b6000600660008473ffffffffffffffffffffffffffffffffffffffff1673ffffffffffffffffffffffffffffffffffffffff16815260200190815260200160002090506000600662278d004261339e919061426a565b6133a8919061429b565b905082156133cb578160000160008154809291906133c590614153565b91905055505b8160010160008154809291906133e090614153565b9190505550428260050181905550600760008573ffffffffffffffffffffffffffffffffffffffff1673ffffffffffffffffffffffffffffffffffffffff1681526020019081526020016000206000828152602001908152602001600020600081548092919061344f90614153565b919050555050505050565b6134626135a5565b73ffffffffffffffffffffffffffffffffffffffff166134806127b6565b73ffffffffffffffffffffffffffffffffffffffff16146134df576134a36135a5565b6040517f118cdaa70000000000000000000000000000000000000000000000000000000081526004016134d69190613ca8565b60405180910390fd5b565b60008060009054906101000a900473ffffffffffffffffffffffffffffffffffffffff169050816000806101000a81548173ffffffffffffffffffffffffffffffffffffffff021916908373ffffffffffffffffffffffffffffffffffffffff1602179055508173ffffffffffffffffffffffffffffffffffffffff168173ffffffffffffffffffffffffffffffffffffffff167f8be0079c531659141344cd1fd0a4f28419497f9722a3daafe3b4186f6b6457e060405160405180910390a35050565b600033905090565b6000604051905090565b600080fd5b600080fd5b6000819050919050565b6135d4816135c1565b81146135df57600080fd5b50565b6000813590506135f1816135cb565b92915050565b600073ffffffffffffffffffffffffffffffffffffffff82169050919050565b6000613622826135f7565b9050919050565b61363281613617565b811461363d57600080fd5b50565b60008135905061364f81613629565b92915050565b6000806040838503121561366c5761366b6135b7565b5b600061367a858286016135e2565b925050602061368b85828601613640565b9150509250929050565b600080604083850312156136ac576136ab6135b7565b5b60006136ba85828601613640565b92505060206136cb858286016135e2565b9150509250929050565b6136de816135c1565b82525050565b60006020820190506136f960008301846136d5565b92915050565b60008115159050919050565b613714816136ff565b811461371f57600080fd5b50565b6000813590506137318161370b565b92915050565b60006020828403121561374d5761374c6135b7565b5b600061375b84828501613722565b91505092915050565b600081519050919050565b600082825260208201905092915050565b6000819050602082019050919050565b613799816135c1565b82525050565b60006137ab8383613790565b60208301905092915050565b6000602082019050919050565b60006137cf82613764565b6137d9818561376f565b93506137e483613780565b8060005b838110156138155781516137fc888261379f565b9750613807836137b7565b9250506001810190506137e8565b5085935050505092915050565b600081519050919050565b600082825260208201905092915050565b6000819050602082019050919050565b61385781613617565b82525050565b6000613869838361384e565b60208301905092915050565b6000602082019050919050565b600061388d82613822565b613897818561382d565b93506138a28361383e565b8060005b838110156138d35781516138ba888261385d565b97506138c583613875565b9250506001810190506138a6565b5085935050505092915050565b600081519050919050565b600082825260208201905092915050565b6000819050602082019050919050565b613915816136ff565b82525050565b6000613927838361390c565b60208301905092915050565b6000602082019050919050565b600061394b826138e0565b61395581856138eb565b9350613960836138fc565b8060005b83811015613991578151613978888261391b565b975061398383613933565b925050600181019050613964565b5085935050505092915050565b60006101208201905081810360008301526139b9818c6137c4565b905081810360208301526139cd818b613882565b905081810360408301526139e1818a613882565b905081810360608301526139f581896137c4565b90508181036080830152613a0981886137c4565b905081810360a0830152613a1d81876137c4565b905081810360c0830152613a3181866137c4565b905081810360e0830152613a458185613940565b9050818103610100830152613a5a8184613882565b90509a9950505050505050505050565b600080600060608486031215613a8357613a826135b7565b5b6000613a9186828701613640565b9350506020613aa286828701613640565b9250506040613ab386828701613640565b9150509250925092565b600060208284031215613ad357613ad26135b7565b5b6000613ae184828501613640565b91505092915050565b60006040820190508181036000830152613b0481856137c4565b90508181036020830152613b1881846137c4565b90509392505050565b60008060408385031215613b3857613b376135b7565b5b6000613b4685828601613640565b9250506020613b5785828601613640565b9150509250929050565b613b6a816136ff565b82525050565b6000602082019050613b856000830184613b61565b92915050565b600060208284031215613ba157613ba06135b7565b5b6000613baf848285016135e2565b91505092915050565b6000819050919050565b613bcb81613bb8565b8114613bd657600080fd5b50565b600081359050613be881613bc2565b92915050565b600060208284031215613c0457613c036135b7565b5b6000613c1284828501613bd9565b91505092915050565b613c2481613617565b82525050565b600061010082019050613c40600083018b613c1b565b613c4d602083018a613c1b565b613c5a60408301896136d5565b613c6760608301886136d5565b613c7460808301876136d5565b613c8160a08301866136d5565b613c8e60c0830185613b61565b613c9b60e0830184613c1b565b9998505050505050505050565b6000602082019050613cbd6000830184613c1b565b92915050565b60006080820190508181036000830152613cdd8187613882565b90508181036020830152613cf181866137c4565b90508181036040830152613d0581856137c4565b90508181036060830152613d1981846137c4565b905095945050505050565b600060c082019050613d3960008301896136d5565b613d4660208301886136d5565b613d5360408301876136d5565b613d6060608301866136d5565b613d6d6080830185613b61565b613d7a60a08301846136d5565b979650505050505050565b6000819050919050565b6000613daa613da5613da0846135f7565b613d85565b6135f7565b9050919050565b6000613dbc82613d8f565b9050919050565b6000613dce82613db1565b9050919050565b613dde81613dc3565b82525050565b6000602082019050613df96000830184613dd5565b92915050565b6000606082019050613e1460008301866136d5565b613e2160208301856136d5565b613e2e60408301846136d5565b949350505050565b600061012082019050613e4c600083018c6136d5565b613e59602083018b6136d5565b613e66604083018a6136d5565b613e7360608301896136d5565b613e8060808301886136d5565b613e8d60a08301876136d5565b613e9a60c08301866136d5565b613ea760e0830185613b61565b613eb56101008301846136d5565b9a9950505050505050505050565b600082825260208201905092915050565b7f426174746c65206e6f7420737461727465640000000000000000000000000000600082015250565b6000613f0a601283613ec3565b9150613f1582613ed4565b602082019050919050565b60006020820190508181036000830152613f3981613efd565b9050919050565b7f426174746c6520656e6465640000000000000000000000000000000000000000600082015250565b6000613f76600c83613ec3565b9150613f8182613f40565b602082019050919050565b60006020820190508181036000830152613fa581613f69565b9050919050565b7f416c726561647920766f74656400000000000000000000000000000000000000600082015250565b6000613fe2600d83613ec3565b9150613fed82613fac565b602082019050919050565b6000602082019050818103600083015261401181613fd5565b9050919050565b7f496e76616c696420746f6b656e00000000000000000000000000000000000000600082015250565b600061404e600d83613ec3565b915061405982614018565b602082019050919050565b6000602082019050818103600083015261407d81614041565b9050919050565b7f4e6f20766f74696e6720706f7765720000000000000000000000000000000000600082015250565b60006140ba600f83613ec3565b91506140c582614084565b602082019050919050565b600060208201905081810360008301526140e9816140ad565b9050919050565b7f4e487b7100000000000000000000000000000000000000000000000000000000600052601160045260246000fd5b600061412a826135c1565b9150614135836135c1565b925082820190508082111561414d5761414c6140f0565b5b92915050565b600061415e826135c1565b91507fffffffffffffffffffffffffffffffffffffffffffffffffffffffffffffffff82036141905761418f6140f0565b5b600182019050919050565b7f4e487b7100000000000000000000000000000000000000000000000000000000600052604160045260246000fd5b7f4e487b7100000000000000000000000000000000000000000000000000000000600052603260045260246000fd5b600081519050614208816135cb565b92915050565b600060208284031215614224576142236135b7565b5b6000614232848285016141f9565b91505092915050565b7f4e487b7100000000000000000000000000000000000000000000000000000000600052601260045260246000fd5b6000614275826135c1565b9150614280836135c1565b9250826142905761428f61423b565b5b828204905092915050565b60006142a6826135c1565b91506142b1836135c1565b9250826142c1576142c061423b565b5b828206905092915050565b7f496e73756666696369656e74206372656174696f6e2066656500000000000000600082015250565b6000614302601983613ec3565b915061430d826142cc565b602082019050919050565b60006020820190508181036000830152614331816142f5565b9050919050565b7f43616e6e6f7420626174746c652073616d6520746f6b656e0000000000000000600082015250565b600061436e601883613ec3565b915061437982614338565b602082019050919050565b6000602082019050818103600083015261439d81614361565b9050919050565b60008160601b9050919050565b60006143bc826143a4565b9050919050565b60006143ce826143b1565b9050919050565b6143e66143e182613617565b6143c3565b82525050565b60006143f882856143d5565b60148201915061440882846143d5565b6014820191508190509392505050565b7f546f6b656e20636f6d62696e6174696f6e20696e20636f6f6c646f776e000000600082015250565b600061444e601d83613ec3565b915061445982614418565b602082019050919050565b6000602082019050818103600083015261447d81614441565b9050919050565b600080fd5b600080fd5b6000601f19601f8301169050919050565b6144a88261448e565b810181811067ffffffffffffffff821117156144c7576144c661419b565b5b80604052505050565b60006144da6135ad565b90506144e6828261449f565b919050565b600067ffffffffffffffff8211156145065761450561419b565b5b61450f8261448e565b9050602081019050919050565b60005b8381101561453a57808201518184015260208101905061451f565b60008484015250505050565b6000614559614554846144eb565b6144d0565b90508281526020810184848401111561457557614574614489565b5b61458084828561451c565b509392505050565b600082601f83011261459d5761459c614484565b5b81516145ad848260208601614546565b91505092915050565b6000815190506145c581613629565b92915050565b600381106145d857600080fd5b50565b6000815190506145ea816145cb565b92915050565b600080600080600080600080610100898b031215614611576146106135b7565b5b600089015167ffffffffffffffff81111561462f5761462e6135bc565b5b61463b8b828c01614588565b985050602089015167ffffffffffffffff81111561465c5761465b6135bc565b5b6146688b828c01614588565b975050604089015167ffffffffffffffff811115614689576146886135bc565b5b6146958b828c01614588565b965050606089015167ffffffffffffffff8111156146b6576146b56135bc565b5b6146c28b828c01614588565b95505060806146d38b828c016145b6565b94505060a06146e48b828c016145db565b93505060c06146f58b828c016141f9565b92505060e06147068b828c016141f9565b9150509295985092959890939650565b7f4e487b7100000000000000000000000000000000000000000000000000000000600052602160045260246000fd5b7f4f6e6c792067726164756174656420746f6b656e732063616e20626174746c65600082015250565b600061477b602083613ec3565b915061478682614745565b602082019050919050565b600060208201905081810360008301526147aa8161476e565b9050919050565b7f496e73756666696369656e7420746f6b656e20737570706c7900000000000000600082015250565b60006147e7601983613ec3565b91506147f2826147b1565b602082019050919050565b60006020820190508181036000830152614816816147da565b9050919050565b600060408201905061483260008301856136d5565b61483f60208301846136d5565b9392505050565b7f426174746c65206e6f7420656e64656400000000000000000000000000000000600082015250565b600061487c601083613ec3565b915061488782614846565b602082019050919050565b600060208201905081810360008301526148ab8161486f565b9050919050565b7f416c726561647920736574746c65640000000000000000000000000000000000600082015250565b60006148e8600f83613ec3565b91506148f3826148b2565b602082019050919050565b60006020820190508181036000830152614917816148db565b9050919050565b600067ffffffffffffffff8211156149395761493861419b565b5b602082029050602081019050919050565b600080fd5b600080fd5b600080fd5b600061014082840312156149705761496f61494f565b5b61497b6101406144d0565b9050600061498b848285016145b6565b600083015250602082015167ffffffffffffffff8111156149af576149ae614954565b5b6149bb84828501614588565b602083015250604082015167ffffffffffffffff8111156149df576149de614954565b5b6149eb84828501614588565b604083015250606082015167ffffffffffffffff811115614a0f57614a0e614954565b5b614a1b84828501614588565b606083015250608082015167ffffffffffffffff811115614a3f57614a3e614954565b5b614a4b84828501614588565b60808301525060a0614a5f848285016145b6565b60a08301525060c0614a73848285016145db565b60c08301525060e0614a87848285016141f9565b60e083015250610100614a9c848285016141f9565b61010083015250610120614ab2848285016141f9565b6101208301525092915050565b6000614ad2614acd8461491e565b6144d0565b90508083825260208201905060208402830185811115614af557614af461494a565b5b835b81811015614b3c57805167ffffffffffffffff811115614b1a57614b19614484565b5b808601614b278982614959565b85526020850194505050602081019050614af7565b5050509392505050565b600082601f830112614b5b57614b5a614484565b5b8151614b6b848260208601614abf565b91505092915050565b600060208284031215614b8a57614b896135b7565b5b600082015167ffffffffffffffff811115614ba857614ba76135bc565b5b614bb484828501614b46565b9150509291505056fea2646970667358221220d401689585e4935abe6374c71e31ef1f1000eea60ca2b88c9c25224789729fe164736f6c634300081c0033",
  "linkReferences": {},
  "deployedLinkReferences": {}
}